{
  "contractName": "Vault",
  "abi": [
    {
      "inputs": [
        {
          "internalType": "contract StableCoinToken",
          "name": "_token",
          "type": "address"
        },
        {
          "internalType": "contract PriceConsumer",
          "name": "_oracle",
          "type": "address"
        }
      ],
      "stateMutability": "nonpayable",
      "type": "constructor"
    },
    {
      "anonymous": false,
      "inputs": [
        {
          "indexed": false,
          "internalType": "uint256",
          "name": "collateralDeposited",
          "type": "uint256"
        },
        {
          "indexed": false,
          "internalType": "uint256",
          "name": "amountMinted",
          "type": "uint256"
        }
      ],
      "name": "Deposit",
      "type": "event"
    },
    {
      "anonymous": false,
      "inputs": [
        {
          "indexed": false,
          "internalType": "uint256",
          "name": "collateralWithdrawn",
          "type": "uint256"
        },
        {
          "indexed": false,
          "internalType": "uint256",
          "name": "amountBurned",
          "type": "uint256"
        }
      ],
      "name": "Withdraw",
      "type": "event"
    },
    {
      "inputs": [],
      "name": "token",
      "outputs": [
        {
          "internalType": "contract StableCoinToken",
          "name": "",
          "type": "address"
        }
      ],
      "stateMutability": "view",
      "type": "function",
      "constant": true
    },
    {
      "inputs": [],
      "name": "getEthUSDPrice",
      "outputs": [
        {
          "internalType": "uint256",
          "name": "",
          "type": "uint256"
        }
      ],
      "stateMutability": "view",
      "type": "function",
      "constant": true
    },
    {
      "inputs": [
        {
          "internalType": "uint256",
          "name": "amountToDeposit",
          "type": "uint256"
        }
      ],
      "name": "deposit",
      "outputs": [],
      "stateMutability": "payable",
      "type": "function",
      "payable": true
    },
    {
      "inputs": [],
      "name": "withdraw",
      "outputs": [],
      "stateMutability": "nonpayable",
      "type": "function"
    }
  ],
  "bytecode": "0x60806040523480156200001157600080fd5b5060405162000bfa38038062000bfa8339818101604052810190620000379190620000ef565b81600160006101000a81548173ffffffffffffffffffffffffffffffffffffffff021916908373ffffffffffffffffffffffffffffffffffffffff16021790555080600260006101000a81548173ffffffffffffffffffffffffffffffffffffffff021916908373ffffffffffffffffffffffffffffffffffffffff1602179055505050620001c0565b600081519050620000d2816200018c565b92915050565b600081519050620000e981620001a6565b92915050565b600080604083850312156200010357600080fd5b60006200011385828601620000d8565b92505060206200012685828601620000c1565b9150509250929050565b60006200013d826200016c565b9050919050565b6000620001518262000130565b9050919050565b6000620001658262000130565b9050919050565b600073ffffffffffffffffffffffffffffffffffffffff82169050919050565b620001978162000144565b8114620001a357600080fd5b50565b620001b18162000158565b8114620001bd57600080fd5b50565b610a2a80620001d06000396000f3fe60806040526004361061003f5760003560e01c80633ccfd60b14610044578063b6b55f251461005b578063d84549d714610077578063fc0c546a146100a2575b600080fd5b34801561005057600080fd5b506100596100cd565b005b61007560048036038101906100709190610677565b61030e565b005b34801561008357600080fd5b5061008c610504565b6040516100999190610771565b60405180910390f35b3480156100ae57600080fd5b506100b76105c0565b6040516100c49190610736565b60405180910390f35b60008060003373ffffffffffffffffffffffffffffffffffffffff1673ffffffffffffffffffffffffffffffffffffffff168152602001908152602001600020600101549050600061011d610504565b82610128919061081c565b9050600160009054906101000a900473ffffffffffffffffffffffffffffffffffffffff1673ffffffffffffffffffffffffffffffffffffffff16639dc29fac33846040518363ffffffff1660e01b815260040161018792919061070d565b602060405180830381600087803b1580156101a157600080fd5b505af11580156101b5573d6000803e3d6000fd5b505050506040513d601f19601f820116820180604052508101906101d99190610625565b50806000803373ffffffffffffffffffffffffffffffffffffffff1673ffffffffffffffffffffffffffffffffffffffff168152602001908152602001600020600001600082825461022b91906108a7565b92505081905550816000803373ffffffffffffffffffffffffffffffffffffffff1673ffffffffffffffffffffffffffffffffffffffff168152602001908152602001600020600101600082825461028391906108a7565b925050819055503373ffffffffffffffffffffffffffffffffffffffff166108fc829081150290604051600060405180830381858888f193505050501580156102d0573d6000803e3d6000fd5b507f56ca301a9219608c91e7bcee90e083c19671d2cdcc96752c7af291cee5f9c8c8818360405161030292919061078c565b60405180910390a15050565b348114610350576040517f08c379a000000000000000000000000000000000000000000000000000000000815260040161034790610751565b60405180910390fd5b600061035a610504565b82610365919061084d565b9050600160009054906101000a900473ffffffffffffffffffffffffffffffffffffffff1673ffffffffffffffffffffffffffffffffffffffff166340c10f1933836040518363ffffffff1660e01b81526004016103c492919061070d565b602060405180830381600087803b1580156103de57600080fd5b505af11580156103f2573d6000803e3d6000fd5b505050506040513d601f19601f820116820180604052508101906104169190610625565b50816000803373ffffffffffffffffffffffffffffffffffffffff1673ffffffffffffffffffffffffffffffffffffffff168152602001908152602001600020600001600082825461046891906107c6565b92505081905550806000803373ffffffffffffffffffffffffffffffffffffffff1673ffffffffffffffffffffffffffffffffffffffff16815260200190815260200160002060010160008282546104c091906107c6565b925050819055507fa3af609bf46297028ce551832669030f9effef2b02606d02cbbcc40fe6b47c5582826040516104f892919061078c565b60405180910390a15050565b600080600260009054906101000a900473ffffffffffffffffffffffffffffffffffffffff1673ffffffffffffffffffffffffffffffffffffffff16638e15f4736040518163ffffffff1660e01b815260040160206040518083038186803b15801561056f57600080fd5b505afa158015610583573d6000803e3d6000fd5b505050506040513d601f19601f820116820180604052508101906105a7919061064e565b90506402540be400816105ba919061084d565b91505090565b600160009054906101000a900473ffffffffffffffffffffffffffffffffffffffff1681565b6000815190506105f5816109af565b92915050565b60008151905061060a816109c6565b92915050565b60008135905061061f816109dd565b92915050565b60006020828403121561063757600080fd5b6000610645848285016105e6565b91505092915050565b60006020828403121561066057600080fd5b600061066e848285016105fb565b91505092915050565b60006020828403121561068957600080fd5b600061069784828501610610565b91505092915050565b6106a9816108db565b82525050565b6106b88161092d565b82525050565b60006106cb6014836107b5565b91507f696e636f72726563742045544820616d6f756e740000000000000000000000006000830152602082019050919050565b61070781610923565b82525050565b600060408201905061072260008301856106a0565b61072f60208301846106fe565b9392505050565b600060208201905061074b60008301846106af565b92915050565b6000602082019050818103600083015261076a816106be565b9050919050565b600060208201905061078660008301846106fe565b92915050565b60006040820190506107a160008301856106fe565b6107ae60208301846106fe565b9392505050565b600082825260208201905092915050565b60006107d182610923565b91506107dc83610923565b9250827fffffffffffffffffffffffffffffffffffffffffffffffffffffffffffffffff0382111561081157610810610951565b5b828201905092915050565b600061082782610923565b915061083283610923565b92508261084257610841610980565b5b828204905092915050565b600061085882610923565b915061086383610923565b9250817fffffffffffffffffffffffffffffffffffffffffffffffffffffffffffffffff048311821515161561089c5761089b610951565b5b828202905092915050565b60006108b282610923565b91506108bd83610923565b9250828210156108d0576108cf610951565b5b828203905092915050565b60006108e682610903565b9050919050565b60008115159050919050565b6000819050919050565b600073ffffffffffffffffffffffffffffffffffffffff82169050919050565b6000819050919050565b60006109388261093f565b9050919050565b600061094a82610903565b9050919050565b7f4e487b7100000000000000000000000000000000000000000000000000000000600052601160045260246000fd5b7f4e487b7100000000000000000000000000000000000000000000000000000000600052601260045260246000fd5b6109b8816108ed565b81146109c357600080fd5b50565b6109cf816108f9565b81146109da57600080fd5b50565b6109e681610923565b81146109f157600080fd5b5056fea2646970667358221220ee24c819e077c946f0393156bf420a133fefd5449f3c63d98236a857c6b98fe764736f6c63430008000033",
  "immutableReferences": {},
  "source": "// SPDX-License-Identifier: MIT\npragma solidity ^0.8.0;\n\nimport \"../interfaces/IVault.sol\";\nimport \"./Erc20Coin.sol\";\nimport \"./PriceConsumer.sol\";\nimport \"./Oracle.sol\";\n\ncontract Vault is IVault {\n    mapping (address => Vault) vaults;\n    StableCoinToken public token;\n    PriceConsumer private oracle;\n\n    constructor(StableCoinToken _token, PriceConsumer _oracle){\n        token = _token;\n        oracle = _oracle;\n    }\n\n    function getEthUSDPrice() public view returns (uint256){\n        uint price8 = uint(oracle.getLatestPrice());\n        return price8*(10**10);\n    }\n\n    /**\n    @notice Allows a user to deposit ETH collateral in exchange for some amount of stablecoin\n    @param amountToDeposit  The amount of ether the user sent in the transaction\n     */\n    function deposit(uint256 amountToDeposit) override payable external {\n        require(amountToDeposit == msg.value, \"incorrect ETH amount\");\n        uint256 amountToMint = amountToDeposit * getEthUSDPrice();\n        token.mint(msg.sender, amountToMint);\n        vaults[msg.sender].collateralAmount += amountToDeposit;\n        vaults[msg.sender].debtAmount += amountToMint;\n        emit Deposit(amountToDeposit, amountToMint);\n    }\n\n     /**\n    @notice Allows a user to withdraw up to 100% of the collateral they have on deposit\n    @dev This cannot allow a user to withdraw more than they put in\n     */\n    function withdraw() override external {\n        uint256 repaymentAmount = vaults[msg.sender].debtAmount;\n        uint256 amountToWithdraw = repaymentAmount / getEthUSDPrice();\n        token.burn(msg.sender, repaymentAmount);\n        vaults[msg.sender].collateralAmount -= amountToWithdraw;\n        vaults[msg.sender].debtAmount -= repaymentAmount;\n        payable(msg.sender).transfer(amountToWithdraw);\n        emit Withdraw(amountToWithdraw, repaymentAmount);\n    }\n}",
  "sourcePath": "/Users/ateettiwari/Desktop/Blockchain/week3/Contracts/contracts/implementations/Vault.sol",
  "compiler": {
    "name": "solc",
    "version": "0.8.0+commit.c7dfd78e.Emscripten.clang"
  },
  "schemaVersion": "3.4.6",
  "updatedAt": "2022-07-04T12:38:32.551Z",
  "networkType": "ethereum",
  "devdoc": {
    "kind": "dev",
    "methods": {
      "deposit(uint256)": {
        "params": {
          "amountToDeposit": "The amount of ether the user sent in the transaction"
        }
      },
      "withdraw()": {
        "details": "This cannot allow a user to withdraw more than they put in"
      }
    },
    "version": 1
  },
  "userdoc": {
    "kind": "user",
    "methods": {
      "deposit(uint256)": {
        "notice": "Allows a user to deposit ETH collateral in exchange for some amount of stablecoin"
      },
      "withdraw()": {
        "notice": "Allows a user to withdraw up to 100% of the collateral they have on deposit"
      }
    },
    "version": 1
  }
}