{
    "contractName": "Vault",
    "abi": [
        {
            "inputs": [
                {
                    "internalType": "contract StableCoinToken",
                    "name": "_token",
                    "type": "address"
                },
                {
                    "internalType": "contract PriceConsumer",
                    "name": "_oracle",
                    "type": "address"
                }
            ],
            "stateMutability": "nonpayable",
            "type": "constructor"
        },
        {
            "anonymous": false,
            "inputs": [
                {
                    "indexed": false,
                    "internalType": "uint256",
                    "name": "collateralDeposited",
                    "type": "uint256"
                },
                {
                    "indexed": false,
                    "internalType": "uint256",
                    "name": "amountMinted",
                    "type": "uint256"
                }
            ],
            "name": "Deposit",
            "type": "event"
        },
        {
            "anonymous": false,
            "inputs": [
                {
                    "indexed": true,
                    "internalType": "address",
                    "name": "previousOwner",
                    "type": "address"
                },
                {
                    "indexed": true,
                    "internalType": "address",
                    "name": "newOwner",
                    "type": "address"
                }
            ],
            "name": "OwnershipTransferred",
            "type": "event"
        },
        {
            "anonymous": false,
            "inputs": [
                {
                    "indexed": false,
                    "internalType": "uint256",
                    "name": "collateralWithdrawn",
                    "type": "uint256"
                },
                {
                    "indexed": false,
                    "internalType": "uint256",
                    "name": "amountBurned",
                    "type": "uint256"
                }
            ],
            "name": "Withdraw",
            "type": "event"
        },
        {
            "inputs": [],
            "name": "owner",
            "outputs": [
                {
                    "internalType": "address",
                    "name": "",
                    "type": "address"
                }
            ],
            "stateMutability": "view",
            "type": "function",
            "constant": true
        },
        {
            "inputs": [],
            "name": "renounceOwnership",
            "outputs": [],
            "stateMutability": "nonpayable",
            "type": "function"
        },
        {
            "inputs": [],
            "name": "token",
            "outputs": [
                {
                    "internalType": "contract StableCoinToken",
                    "name": "",
                    "type": "address"
                }
            ],
            "stateMutability": "view",
            "type": "function",
            "constant": true
        },
        {
            "inputs": [
                {
                    "internalType": "address",
                    "name": "newOwner",
                    "type": "address"
                }
            ],
            "name": "transferOwnership",
            "outputs": [],
            "stateMutability": "nonpayable",
            "type": "function"
        },
        {
            "inputs": [],
            "name": "getEthUSDPrice",
            "outputs": [
                {
                    "internalType": "uint256",
                    "name": "",
                    "type": "uint256"
                }
            ],
            "stateMutability": "view",
            "type": "function",
            "constant": true
        },
        {
            "inputs": [
                {
                    "internalType": "uint256",
                    "name": "amountToDeposit",
                    "type": "uint256"
                }
            ],
            "name": "deposit",
            "outputs": [],
            "stateMutability": "payable",
            "type": "function",
            "payable": true
        },
        {
            "inputs": [
                {
                    "internalType": "uint256",
                    "name": "repaymentAmount",
                    "type": "uint256"
                }
            ],
            "name": "withdraw",
            "outputs": [],
            "stateMutability": "nonpayable",
            "type": "function"
        },
        {
            "inputs": [
                {
                    "internalType": "address",
                    "name": "userAddress",
                    "type": "address"
                }
            ],
            "name": "getVault",
            "outputs": [
                {
                    "components": [
                        {
                            "internalType": "uint256",
                            "name": "collateralAmount",
                            "type": "uint256"
                        },
                        {
                            "internalType": "uint256",
                            "name": "debtAmount",
                            "type": "uint256"
                        }
                    ],
                    "internalType": "struct IVault.Vault",
                    "name": "vault",
                    "type": "tuple"
                }
            ],
            "stateMutability": "view",
            "type": "function",
            "constant": true
        },
        {
            "inputs": [
                {
                    "internalType": "uint256",
                    "name": "repaymentAmount",
                    "type": "uint256"
                }
            ],
            "name": "estimateCollateralAmount",
            "outputs": [
                {
                    "internalType": "uint256",
                    "name": "collateralAmount",
                    "type": "uint256"
                }
            ],
            "stateMutability": "view",
            "type": "function",
            "constant": true
        },
        {
            "inputs": [
                {
                    "internalType": "uint256",
                    "name": "depositAmount",
                    "type": "uint256"
                }
            ],
            "name": "estimateTokenAmount",
            "outputs": [
                {
                    "internalType": "uint256",
                    "name": "tokenAmount",
                    "type": "uint256"
                }
            ],
            "stateMutability": "view",
            "type": "function",
            "constant": true
        },
        {
            "inputs": [],
            "name": "getToken",
            "outputs": [
                {
                    "internalType": "address",
                    "name": "",
                    "type": "address"
                }
            ],
            "stateMutability": "view",
            "type": "function",
            "constant": true
        },
        {
            "inputs": [
                {
                    "internalType": "address",
                    "name": "_oracle",
                    "type": "address"
                }
            ],
            "name": "setOracle",
            "outputs": [],
            "stateMutability": "nonpayable",
            "type": "function"
        },
        {
            "inputs": [],
            "name": "getOracle",
            "outputs": [
                {
                    "internalType": "address",
                    "name": "",
                    "type": "address"
                }
            ],
            "stateMutability": "view",
            "type": "function",
            "constant": true
        }
    ],
    "bytecode": "0x60806040523480156200001157600080fd5b5060405162001663380380620016638339818101604052810190620000379190620001db565b620000576200004b620000e160201b60201c565b620000e960201b60201c565b81600260006101000a81548173ffffffffffffffffffffffffffffffffffffffff021916908373ffffffffffffffffffffffffffffffffffffffff16021790555080600360006101000a81548173ffffffffffffffffffffffffffffffffffffffff021916908373ffffffffffffffffffffffffffffffffffffffff1602179055505050620002ac565b600033905090565b60008060009054906101000a900473ffffffffffffffffffffffffffffffffffffffff169050816000806101000a81548173ffffffffffffffffffffffffffffffffffffffff021916908373ffffffffffffffffffffffffffffffffffffffff1602179055508173ffffffffffffffffffffffffffffffffffffffff168173ffffffffffffffffffffffffffffffffffffffff167f8be0079c531659141344cd1fd0a4f28419497f9722a3daafe3b4186f6b6457e060405160405180910390a35050565b600081519050620001be8162000278565b92915050565b600081519050620001d58162000292565b92915050565b60008060408385031215620001ef57600080fd5b6000620001ff85828601620001c4565b92505060206200021285828601620001ad565b9150509250929050565b6000620002298262000258565b9050919050565b60006200023d826200021c565b9050919050565b600062000251826200021c565b9050919050565b600073ffffffffffffffffffffffffffffffffffffffff82169050919050565b620002838162000230565b81146200028f57600080fd5b50565b6200029d8162000244565b8114620002a957600080fd5b50565b6113a780620002bc6000396000f3fe6080604052600436106100c25760003560e01c80637adbf9731161007f578063b6b55f2511610059578063b6b55f2514610268578063d84549d714610284578063f2fde38b146102af578063fc0c546a146102d8576100c2565b80637adbf973146101e9578063833b1fce146102125780638da5cb5b1461023d576100c2565b80630eb9af38146100c75780631b05ab791461010457806321df0da7146101415780632e1a7d4d1461016c57806356bfdaf514610195578063715018a6146101d2575b600080fd5b3480156100d357600080fd5b506100ee60048036038101906100e99190610d1f565b610303565b6040516100fb91906110bc565b60405180910390f35b34801561011057600080fd5b5061012b60048036038101906101269190610d9a565b610370565b60405161013891906110d7565b60405180910390f35b34801561014d57600080fd5b5061015661038c565b6040516101639190610fbd565b60405180910390f35b34801561017857600080fd5b50610193600480360381019061018e9190610d9a565b6103b6565b005b3480156101a157600080fd5b506101bc60048036038101906101b79190610d9a565b610725565b6040516101c991906110d7565b60405180910390f35b3480156101de57600080fd5b506101e7610741565b005b3480156101f557600080fd5b50610210600480360381019061020b9190610d1f565b610755565b005b34801561021e57600080fd5b506102276107a1565b6040516102349190610fbd565b60405180910390f35b34801561024957600080fd5b506102526107cb565b60405161025f9190610fbd565b60405180910390f35b610282600480360381019061027d9190610d9a565b6107f4565b005b34801561029057600080fd5b506102996109ec565b6040516102a691906110d7565b60405180910390f35b3480156102bb57600080fd5b506102d660048036038101906102d19190610d1f565b610aa8565b005b3480156102e457600080fd5b506102ed610b2c565b6040516102fa9190611001565b60405180910390f35b61030b610c9c565b600160008373ffffffffffffffffffffffffffffffffffffffff1673ffffffffffffffffffffffffffffffffffffffff168152602001908152602001600020604051806040016040529081600082015481526020016001820154815250509050919050565b600061037a6109ec565b8261038591906111b3565b9050919050565b6000600260009054906101000a900473ffffffffffffffffffffffffffffffffffffffff16905090565b600160003373ffffffffffffffffffffffffffffffffffffffff1673ffffffffffffffffffffffffffffffffffffffff1681526020019081526020016000206001015481111561043b576040517f08c379a00000000000000000000000000000000000000000000000000000000081526004016104329061101c565b60405180910390fd5b80600260009054906101000a900473ffffffffffffffffffffffffffffffffffffffff1673ffffffffffffffffffffffffffffffffffffffff166370a08231336040518263ffffffff1660e01b81526004016104979190610fbd565b60206040518083038186803b1580156104af57600080fd5b505afa1580156104c3573d6000803e3d6000fd5b505050506040513d601f19601f820116820180604052508101906104e79190610dc3565b1015610528576040517f08c379a000000000000000000000000000000000000000000000000000000000815260040161051f9061105c565b60405180910390fd5b60006105326109ec565b8261053d9190611182565b9050600260009054906101000a900473ffffffffffffffffffffffffffffffffffffffff1673ffffffffffffffffffffffffffffffffffffffff16639dc29fac33846040518363ffffffff1660e01b815260040161059c929190610fd8565b602060405180830381600087803b1580156105b657600080fd5b505af11580156105ca573d6000803e3d6000fd5b505050506040513d601f19601f820116820180604052508101906105ee9190610d48565b5080600160003373ffffffffffffffffffffffffffffffffffffffff1673ffffffffffffffffffffffffffffffffffffffff1681526020019081526020016000206000016000828254610641919061120d565b9250508190555081600160003373ffffffffffffffffffffffffffffffffffffffff1673ffffffffffffffffffffffffffffffffffffffff168152602001908152602001600020600101600082825461069a919061120d565b925050819055503373ffffffffffffffffffffffffffffffffffffffff166108fc829081150290604051600060405180830381858888f193505050501580156106e7573d6000803e3d6000fd5b507f56ca301a9219608c91e7bcee90e083c19671d2cdcc96752c7af291cee5f9c8c881836040516107199291906110f2565b60405180910390a15050565b600061072f6109ec565b8261073a9190611182565b9050919050565b610749610b52565b6107536000610bd0565b565b61075d610b52565b80600360006101000a81548173ffffffffffffffffffffffffffffffffffffffff021916908373ffffffffffffffffffffffffffffffffffffffff16021790555050565b6000600360009054906101000a900473ffffffffffffffffffffffffffffffffffffffff16905090565b60008060009054906101000a900473ffffffffffffffffffffffffffffffffffffffff16905090565b348114610836576040517f08c379a000000000000000000000000000000000000000000000000000000000815260040161082d9061107c565b60405180910390fd5b60006108406109ec565b8261084b91906111b3565b9050600260009054906101000a900473ffffffffffffffffffffffffffffffffffffffff1673ffffffffffffffffffffffffffffffffffffffff166340c10f1933836040518363ffffffff1660e01b81526004016108aa929190610fd8565b602060405180830381600087803b1580156108c457600080fd5b505af11580156108d8573d6000803e3d6000fd5b505050506040513d601f19601f820116820180604052508101906108fc9190610d48565b5081600160003373ffffffffffffffffffffffffffffffffffffffff1673ffffffffffffffffffffffffffffffffffffffff168152602001908152602001600020600001600082825461094f919061112c565b9250508190555080600160003373ffffffffffffffffffffffffffffffffffffffff1673ffffffffffffffffffffffffffffffffffffffff16815260200190815260200160002060010160008282546109a8919061112c565b925050819055507fa3af609bf46297028ce551832669030f9effef2b02606d02cbbcc40fe6b47c5582826040516109e09291906110f2565b60405180910390a15050565b600080600360009054906101000a900473ffffffffffffffffffffffffffffffffffffffff1673ffffffffffffffffffffffffffffffffffffffff16638e15f4736040518163ffffffff1660e01b815260040160206040518083038186803b158015610a5757600080fd5b505afa158015610a6b573d6000803e3d6000fd5b505050506040513d601f19601f82011682018060405250810190610a8f9190610d71565b90506402540be40081610aa291906111b3565b91505090565b610ab0610b52565b600073ffffffffffffffffffffffffffffffffffffffff168173ffffffffffffffffffffffffffffffffffffffff161415610b20576040517f08c379a0000000000000000000000000000000000000000000000000000000008152600401610b179061103c565b60405180910390fd5b610b2981610bd0565b50565b600260009054906101000a900473ffffffffffffffffffffffffffffffffffffffff1681565b610b5a610c94565b73ffffffffffffffffffffffffffffffffffffffff16610b786107cb565b73ffffffffffffffffffffffffffffffffffffffff1614610bce576040517f08c379a0000000000000000000000000000000000000000000000000000000008152600401610bc59061109c565b60405180910390fd5b565b60008060009054906101000a900473ffffffffffffffffffffffffffffffffffffffff169050816000806101000a81548173ffffffffffffffffffffffffffffffffffffffff021916908373ffffffffffffffffffffffffffffffffffffffff1602179055508173ffffffffffffffffffffffffffffffffffffffff168173ffffffffffffffffffffffffffffffffffffffff167f8be0079c531659141344cd1fd0a4f28419497f9722a3daafe3b4186f6b6457e060405160405180910390a35050565b600033905090565b604051806040016040528060008152602001600081525090565b600081359050610cc581611315565b92915050565b600081519050610cda8161132c565b92915050565b600081519050610cef81611343565b92915050565b600081359050610d048161135a565b92915050565b600081519050610d198161135a565b92915050565b600060208284031215610d3157600080fd5b6000610d3f84828501610cb6565b91505092915050565b600060208284031215610d5a57600080fd5b6000610d6884828501610ccb565b91505092915050565b600060208284031215610d8357600080fd5b6000610d9184828501610ce0565b91505092915050565b600060208284031215610dac57600080fd5b6000610dba84828501610cf5565b91505092915050565b600060208284031215610dd557600080fd5b6000610de384828501610d0a565b91505092915050565b610df581611241565b82525050565b610e0481611293565b82525050565b6000610e1760178361111b565b91507f7769746864726177206c696d69742065786365656465640000000000000000006000830152602082019050919050565b6000610e5760268361111b565b91507f4f776e61626c653a206e6577206f776e657220697320746865207a65726f206160008301527f64647265737300000000000000000000000000000000000000000000000000006020830152604082019050919050565b6000610ebd601c8361111b565b91507f6e6f7420656e6f75676820746f6b656e7320696e2062616c616e6365000000006000830152602082019050919050565b6000610efd60148361111b565b91507f696e636f72726563742045544820616d6f756e740000000000000000000000006000830152602082019050919050565b6000610f3d60208361111b565b91507f4f776e61626c653a2063616c6c6572206973206e6f7420746865206f776e65726000830152602082019050919050565b604082016000820151610f866000850182610f9f565b506020820151610f996020850182610f9f565b50505050565b610fa881611289565b82525050565b610fb781611289565b82525050565b6000602082019050610fd26000830184610dec565b92915050565b6000604082019050610fed6000830185610dec565b610ffa6020830184610fae565b9392505050565b60006020820190506110166000830184610dfb565b92915050565b6000602082019050818103600083015261103581610e0a565b9050919050565b6000602082019050818103600083015261105581610e4a565b9050919050565b6000602082019050818103600083015261107581610eb0565b9050919050565b6000602082019050818103600083015261109581610ef0565b9050919050565b600060208201905081810360008301526110b581610f30565b9050919050565b60006040820190506110d16000830184610f70565b92915050565b60006020820190506110ec6000830184610fae565b92915050565b60006040820190506111076000830185610fae565b6111146020830184610fae565b9392505050565b600082825260208201905092915050565b600061113782611289565b915061114283611289565b9250827fffffffffffffffffffffffffffffffffffffffffffffffffffffffffffffffff03821115611177576111766112b7565b5b828201905092915050565b600061118d82611289565b915061119883611289565b9250826111a8576111a76112e6565b5b828204905092915050565b60006111be82611289565b91506111c983611289565b9250817fffffffffffffffffffffffffffffffffffffffffffffffffffffffffffffffff0483118215151615611202576112016112b7565b5b828202905092915050565b600061121882611289565b915061122383611289565b925082821015611236576112356112b7565b5b828203905092915050565b600061124c82611269565b9050919050565b60008115159050919050565b6000819050919050565b600073ffffffffffffffffffffffffffffffffffffffff82169050919050565b6000819050919050565b600061129e826112a5565b9050919050565b60006112b082611269565b9050919050565b7f4e487b7100000000000000000000000000000000000000000000000000000000600052601160045260246000fd5b7f4e487b7100000000000000000000000000000000000000000000000000000000600052601260045260246000fd5b61131e81611241565b811461132957600080fd5b50565b61133581611253565b811461134057600080fd5b50565b61134c8161125f565b811461135757600080fd5b50565b61136381611289565b811461136e57600080fd5b5056fea2646970667358221220d3ad5b863e8141ac1b71970b92ff26dcf4e7f5e7c35c5ac525956518dcb8e29564736f6c63430008000033",
    "immutableReferences": {},
    "source": "// SPDX-License-Identifier: MIT\npragma solidity ^0.8.0;\n\nimport \"../interfaces/IVault.sol\";\nimport \"./Erc20Coin.sol\";\nimport \"./PriceConsumer.sol\";\nimport \"./Oracle.sol\";\nimport \"@openzeppelin/contracts/access/Ownable.sol\";\nimport \"@openzeppelin/contracts/utils/math/SafeMath.sol\";\n\ncontract Vault is IVault, Ownable {\n    mapping (address => Vault) vaults;\n    StableCoinToken public token;\n    PriceConsumer private oracle;\n    using SafeMath for uint256;\n\n    constructor(StableCoinToken _token, PriceConsumer _oracle){\n        token = _token;\n        oracle = _oracle;\n    }\n\n    function getEthUSDPrice() public view returns (uint256){\n        uint price8 = uint(oracle.getLatestPrice());\n        return price8*(10**10);\n    }\n\n    /**\n    @notice Allows a user to deposit ETH collateral in exchange for some amount of stablecoin\n    @param amountToDeposit  The amount of ether the user sent in the transaction\n     */\n    function deposit(uint256 amountToDeposit) override payable external {\n        require(amountToDeposit == msg.value, \"incorrect ETH amount\");\n        uint256 amountToMint = amountToDeposit * getEthUSDPrice();\n        token.mint(msg.sender, amountToMint);\n        vaults[msg.sender].collateralAmount += amountToDeposit;\n        vaults[msg.sender].debtAmount += amountToMint;\n        emit Deposit(amountToDeposit, amountToMint);\n    }\n\n     /**\n    @notice Allows a user to withdraw up to 100% of the collateral they have on deposit\n    @dev This cannot allow a user to withdraw more than they put in\n    @param repaymentAmount  the amount of stablecoin that a user is repaying to redeem their collateral for.\n     */\n    function withdraw(uint256 repaymentAmount) override external {\n        require(repaymentAmount <= vaults[msg.sender].debtAmount, \"withdraw limit exceeded\"); \n        require(token.balanceOf(msg.sender) >= repaymentAmount, \"not enough tokens in balance\");\n        uint256 amountToWithdraw = repaymentAmount / getEthUSDPrice();\n        token.burn(msg.sender, repaymentAmount);\n        vaults[msg.sender].collateralAmount -= amountToWithdraw;\n        vaults[msg.sender].debtAmount -= repaymentAmount;\n        payable(msg.sender).transfer(amountToWithdraw);\n        emit Withdraw(amountToWithdraw, repaymentAmount);\n    }\n\n    /**\n    @notice Returns the details of a vault\n    @param userAddress  the address of the vault owner\n    @return vault  the vault details\n     */\n    function getVault(address userAddress) external view override returns(Vault memory vault) {\n        return vaults[userAddress];\n    }\n\n    /**\n    @notice Returns an estimate of how much collateral could be withdrawn for a given amount of stablecoin\n    @param repaymentAmount  the amount of stable coin that would be repaid\n    @return collateralAmount the estimated amount of a vault's collateral that would be returned \n     */\n    function estimateCollateralAmount(uint256 repaymentAmount) external view override  returns(uint256 collateralAmount) {\n        return repaymentAmount / getEthUSDPrice();\n    }   \n\n    /**\n    @notice Returns an estimate on how much stable coin could be minted at the current rate\n    @param depositAmount the amount of ETH that would be deposited\n    @return tokenAmount  the estimated amount of stablecoin that would be minted\n     */\n    function estimateTokenAmount(uint256 depositAmount) external view override returns(uint256 tokenAmount) {\n        return depositAmount * getEthUSDPrice();\n    }\n\n    function getToken() external view returns (address){\n        return address(token);\n    }\n\n    function setOracle(address _oracle) public onlyOwner {\n        oracle = PriceConsumer(_oracle);\n    }\n\n    function getOracle() public view returns (address) {\n        return address(oracle);\n    }\n}",
    "sourcePath": "/Users/ateettiwari/Desktop/Blockchain/week3/Contracts/contracts/implementations/Vault.sol",
    "compiler": {
        "name": "solc",
        "version": "0.8.0+commit.c7dfd78e.Emscripten.clang"
    },
    "schemaVersion": "3.4.6",
    "updatedAt": "2022-07-02T17:49:47.941Z",
    "networkType": "ethereum",
    "devdoc": {
        "kind": "dev",
        "methods": {
            "deposit(uint256)": {
                "params": {
                    "amountToDeposit": "The amount of ether the user sent in the transaction"
                }
            },
            "estimateCollateralAmount(uint256)": {
                "params": {
                    "repaymentAmount": "the amount of stable coin that would be repaid"
                },
                "returns": {
                    "collateralAmount": "the estimated amount of a vault's collateral that would be returned "
                }
            },
            "estimateTokenAmount(uint256)": {
                "params": {
                    "depositAmount": "the amount of ETH that would be deposited"
                },
                "returns": {
                    "tokenAmount": " the estimated amount of stablecoin that would be minted"
                }
            },
            "getVault(address)": {
                "params": {
                    "userAddress": "the address of the vault owner"
                },
                "returns": {
                    "vault": " the vault details"
                }
            },
            "owner()": {
                "details": "Returns the address of the current owner."
            },
            "renounceOwnership()": {
                "details": "Leaves the contract without owner. It will not be possible to call `onlyOwner` functions anymore. Can only be called by the current owner. NOTE: Renouncing ownership will leave the contract without an owner, thereby removing any functionality that is only available to the owner."
            },
            "transferOwnership(address)": {
                "details": "Transfers ownership of the contract to a new account (`newOwner`). Can only be called by the current owner."
            },
            "withdraw(uint256)": {
                "details": "This cannot allow a user to withdraw more than they put in",
                "params": {
                    "repaymentAmount": "the amount of stablecoin that a user is repaying to redeem their collateral for."
                }
            }
        },
        "version": 1
    },
    "userdoc": {
        "kind": "user",
        "methods": {
            "deposit(uint256)": {
                "notice": "Allows a user to deposit ETH collateral in exchange for some amount of stablecoin"
            },
            "estimateCollateralAmount(uint256)": {
                "notice": "Returns an estimate of how much collateral could be withdrawn for a given amount of stablecoin"
            },
            "estimateTokenAmount(uint256)": {
                "notice": "Returns an estimate on how much stable coin could be minted at the current rate"
            },
            "getVault(address)": {
                "notice": "Returns the details of a vault"
            },
            "withdraw(uint256)": {
                "notice": "Allows a user to withdraw up to 100% of the collateral they have on deposit"
            }
        },
        "version": 1
    }
}